{
  "_format": "hh-sol-artifact-1",
  "contractName": "Minter",
  "sourceName": "contracts/Minter.sol",
  "abi": [
    {
      "inputs": [],
      "stateMutability": "nonpayable",
      "type": "constructor"
    },
    {
      "anonymous": false,
      "inputs": [
        {
          "indexed": true,
          "internalType": "address",
          "name": "owner",
          "type": "address"
        },
        {
          "indexed": true,
          "internalType": "address",
          "name": "approved",
          "type": "address"
        },
        {
          "indexed": true,
          "internalType": "uint256",
          "name": "tokenId",
          "type": "uint256"
        }
      ],
      "name": "Approval",
      "type": "event"
    },
    {
      "anonymous": false,
      "inputs": [
        {
          "indexed": true,
          "internalType": "address",
          "name": "owner",
          "type": "address"
        },
        {
          "indexed": true,
          "internalType": "address",
          "name": "operator",
          "type": "address"
        },
        {
          "indexed": false,
          "internalType": "bool",
          "name": "approved",
          "type": "bool"
        }
      ],
      "name": "ApprovalForAll",
      "type": "event"
    },
    {
      "anonymous": false,
      "inputs": [
        {
          "indexed": true,
          "internalType": "address",
          "name": "previousOwner",
          "type": "address"
        },
        {
          "indexed": true,
          "internalType": "address",
          "name": "newOwner",
          "type": "address"
        }
      ],
      "name": "OwnershipTransferred",
      "type": "event"
    },
    {
      "anonymous": false,
      "inputs": [
        {
          "indexed": true,
          "internalType": "address",
          "name": "from",
          "type": "address"
        },
        {
          "indexed": true,
          "internalType": "address",
          "name": "to",
          "type": "address"
        },
        {
          "indexed": true,
          "internalType": "uint256",
          "name": "tokenId",
          "type": "uint256"
        }
      ],
      "name": "Transfer",
      "type": "event"
    },
    {
      "inputs": [
        {
          "internalType": "address",
          "name": "to",
          "type": "address"
        },
        {
          "internalType": "uint256",
          "name": "tokenId",
          "type": "uint256"
        }
      ],
      "name": "approve",
      "outputs": [],
      "stateMutability": "nonpayable",
      "type": "function"
    },
    {
      "inputs": [
        {
          "internalType": "address",
          "name": "owner",
          "type": "address"
        }
      ],
      "name": "balanceOf",
      "outputs": [
        {
          "internalType": "uint256",
          "name": "",
          "type": "uint256"
        }
      ],
      "stateMutability": "view",
      "type": "function"
    },
    {
      "inputs": [
        {
          "internalType": "uint256",
          "name": "tokenId",
          "type": "uint256"
        }
      ],
      "name": "getApproved",
      "outputs": [
        {
          "internalType": "address",
          "name": "",
          "type": "address"
        }
      ],
      "stateMutability": "view",
      "type": "function"
    },
    {
      "inputs": [
        {
          "internalType": "address",
          "name": "owner",
          "type": "address"
        },
        {
          "internalType": "address",
          "name": "operator",
          "type": "address"
        }
      ],
      "name": "isApprovedForAll",
      "outputs": [
        {
          "internalType": "bool",
          "name": "",
          "type": "bool"
        }
      ],
      "stateMutability": "view",
      "type": "function"
    },
    {
      "inputs": [],
      "name": "myNfts",
      "outputs": [
        {
          "internalType": "uint256[]",
          "name": "",
          "type": "uint256[]"
        }
      ],
      "stateMutability": "view",
      "type": "function"
    },
    {
      "inputs": [],
      "name": "name",
      "outputs": [
        {
          "internalType": "string",
          "name": "",
          "type": "string"
        }
      ],
      "stateMutability": "view",
      "type": "function"
    },
    {
      "inputs": [],
      "name": "owner",
      "outputs": [
        {
          "internalType": "address",
          "name": "",
          "type": "address"
        }
      ],
      "stateMutability": "view",
      "type": "function"
    },
    {
      "inputs": [
        {
          "internalType": "uint256",
          "name": "tokenId",
          "type": "uint256"
        }
      ],
      "name": "ownerOf",
      "outputs": [
        {
          "internalType": "address",
          "name": "",
          "type": "address"
        }
      ],
      "stateMutability": "view",
      "type": "function"
    },
    {
      "inputs": [],
      "name": "renounceOwnership",
      "outputs": [],
      "stateMutability": "nonpayable",
      "type": "function"
    },
    {
      "inputs": [
        {
          "internalType": "string",
          "name": "uri",
          "type": "string"
        }
      ],
      "name": "safeMint",
      "outputs": [],
      "stateMutability": "nonpayable",
      "type": "function"
    },
    {
      "inputs": [
        {
          "internalType": "address",
          "name": "from",
          "type": "address"
        },
        {
          "internalType": "address",
          "name": "to",
          "type": "address"
        },
        {
          "internalType": "uint256",
          "name": "tokenId",
          "type": "uint256"
        }
      ],
      "name": "safeTransferFrom",
      "outputs": [],
      "stateMutability": "nonpayable",
      "type": "function"
    },
    {
      "inputs": [
        {
          "internalType": "address",
          "name": "from",
          "type": "address"
        },
        {
          "internalType": "address",
          "name": "to",
          "type": "address"
        },
        {
          "internalType": "uint256",
          "name": "tokenId",
          "type": "uint256"
        },
        {
          "internalType": "bytes",
          "name": "_data",
          "type": "bytes"
        }
      ],
      "name": "safeTransferFrom",
      "outputs": [],
      "stateMutability": "nonpayable",
      "type": "function"
    },
    {
      "inputs": [
        {
          "internalType": "address",
          "name": "operator",
          "type": "address"
        },
        {
          "internalType": "bool",
          "name": "approved",
          "type": "bool"
        }
      ],
      "name": "setApprovalForAll",
      "outputs": [],
      "stateMutability": "nonpayable",
      "type": "function"
    },
    {
      "inputs": [
        {
          "internalType": "bytes4",
          "name": "interfaceId",
          "type": "bytes4"
        }
      ],
      "name": "supportsInterface",
      "outputs": [
        {
          "internalType": "bool",
          "name": "",
          "type": "bool"
        }
      ],
      "stateMutability": "view",
      "type": "function"
    },
    {
      "inputs": [],
      "name": "symbol",
      "outputs": [
        {
          "internalType": "string",
          "name": "",
          "type": "string"
        }
      ],
      "stateMutability": "view",
      "type": "function"
    },
    {
      "inputs": [
        {
          "internalType": "uint256",
          "name": "index",
          "type": "uint256"
        }
      ],
      "name": "tokenByIndex",
      "outputs": [
        {
          "internalType": "uint256",
          "name": "",
          "type": "uint256"
        }
      ],
      "stateMutability": "view",
      "type": "function"
    },
    {
      "inputs": [
        {
          "internalType": "address",
          "name": "owner",
          "type": "address"
        },
        {
          "internalType": "uint256",
          "name": "index",
          "type": "uint256"
        }
      ],
      "name": "tokenOfOwnerByIndex",
      "outputs": [
        {
          "internalType": "uint256",
          "name": "",
          "type": "uint256"
        }
      ],
      "stateMutability": "view",
      "type": "function"
    },
    {
      "inputs": [
        {
          "internalType": "uint256",
          "name": "tokenId",
          "type": "uint256"
        }
      ],
      "name": "tokenURI",
      "outputs": [
        {
          "internalType": "string",
          "name": "",
          "type": "string"
        }
      ],
      "stateMutability": "view",
      "type": "function"
    },
    {
      "inputs": [],
      "name": "totalSupply",
      "outputs": [
        {
          "internalType": "uint256",
          "name": "",
          "type": "uint256"
        }
      ],
      "stateMutability": "view",
      "type": "function"
    },
    {
      "inputs": [
        {
          "internalType": "address",
          "name": "from",
          "type": "address"
        },
        {
          "internalType": "address",
          "name": "to",
          "type": "address"
        },
        {
          "internalType": "uint256",
          "name": "tokenId",
          "type": "uint256"
        }
      ],
      "name": "transferFrom",
      "outputs": [],
      "stateMutability": "nonpayable",
      "type": "function"
    },
    {
      "inputs": [
        {
          "internalType": "address",
          "name": "newOwner",
          "type": "address"
        }
      ],
      "name": "transferOwnership",
      "outputs": [],
      "stateMutability": "nonpayable",
      "type": "function"
    }
  ],
  "bytecode": "0x60806040523480156200001157600080fd5b506040518060400160405280600781526020017f4d696e74657273000000000000000000000000000000000000000000000000008152506040518060400160405280600481526020017f4d4e545300000000000000000000000000000000000000000000000000000000815250816000908051906020019062000096929190620001a6565b508060019080519060200190620000af929190620001a6565b505050620000d2620000c6620000d860201b60201c565b620000e060201b60201c565b620002bb565b600033905090565b6000600b60009054906101000a900473ffffffffffffffffffffffffffffffffffffffff16905081600b60006101000a81548173ffffffffffffffffffffffffffffffffffffffff021916908373ffffffffffffffffffffffffffffffffffffffff1602179055508173ffffffffffffffffffffffffffffffffffffffff168173ffffffffffffffffffffffffffffffffffffffff167f8be0079c531659141344cd1fd0a4f28419497f9722a3daafe3b4186f6b6457e060405160405180910390a35050565b828054620001b49062000256565b90600052602060002090601f016020900481019282620001d8576000855562000224565b82601f10620001f357805160ff191683800117855562000224565b8280016001018555821562000224579182015b828111156200022357825182559160200191906001019062000206565b5b50905062000233919062000237565b5090565b5b808211156200025257600081600090555060010162000238565b5090565b600060028204905060018216806200026f57607f821691505b602082108114156200028657620002856200028c565b5b50919050565b7f4e487b7100000000000000000000000000000000000000000000000000000000600052602260045260246000fd5b613a4380620002cb6000396000f3fe608060405234801561001057600080fd5b50600436106101375760003560e01c8063695850fb116100b857806395d89b411161007c57806395d89b411461034e578063a22cb4651461036c578063b88d4fde14610388578063c87b56dd146103a4578063e985e9c5146103d4578063f2fde38b1461040457610137565b8063695850fb146102bc57806370a08231146102d8578063715018a61461030857806371d70183146103125780638da5cb5b1461033057610137565b806323b872dd116100ff57806323b872dd146101f45780632f745c591461021057806342842e0e146102405780634f6ccce71461025c5780636352211e1461028c57610137565b806301ffc9a71461013c57806306fdde031461016c578063081812fc1461018a578063095ea7b3146101ba57806318160ddd146101d6575b600080fd5b610156600480360381019061015191906127ad565b610420565b6040516101639190612d27565b60405180910390f35b610174610432565b6040516101819190612d42565b60405180910390f35b6101a4600480360381019061019f9190612840565b6104c4565b6040516101b19190612c9e565b60405180910390f35b6101d460048036038101906101cf9190612771565b610549565b005b6101de610661565b6040516101eb9190612fe4565b60405180910390f35b61020e6004803603810190610209919061266b565b61066e565b005b61022a60048036038101906102259190612771565b6106ce565b6040516102379190612fe4565b60405180910390f35b61025a6004803603810190610255919061266b565b610773565b005b61027660048036038101906102719190612840565b610793565b6040516102839190612fe4565b60405180910390f35b6102a660048036038101906102a19190612840565b61082a565b6040516102b39190612c9e565b60405180910390f35b6102d660048036038101906102d191906127ff565b6108dc565b005b6102f260048036038101906102ed9190612606565b61090c565b6040516102ff9190612fe4565b60405180910390f35b6103106109c4565b005b61031a610a4c565b6040516103279190612d05565b60405180910390f35b610338610b89565b6040516103459190612c9e565b60405180910390f35b610356610bb3565b6040516103639190612d42565b60405180910390f35b61038660048036038101906103819190612735565b610c45565b005b6103a2600480360381019061039d91906126ba565b610c5b565b005b6103be60048036038101906103b99190612840565b610cbd565b6040516103cb9190612d42565b60405180910390f35b6103ee60048036038101906103e9919061262f565b610ccf565b6040516103fb9190612d27565b60405180910390f35b61041e60048036038101906104199190612606565b610d63565b005b600061042b82610e5b565b9050919050565b60606000805461044190613273565b80601f016020809104026020016040519081016040528092919081815260200182805461046d90613273565b80156104ba5780601f1061048f576101008083540402835291602001916104ba565b820191906000526020600020905b81548152906001019060200180831161049d57829003601f168201915b5050505050905090565b60006104cf82610ed5565b61050e576040517f08c379a000000000000000000000000000000000000000000000000000000000815260040161050590612f24565b60405180910390fd5b6004600083815260200190815260200160002060009054906101000a900473ffffffffffffffffffffffffffffffffffffffff169050919050565b60006105548261082a565b90508073ffffffffffffffffffffffffffffffffffffffff168373ffffffffffffffffffffffffffffffffffffffff1614156105c5576040517f08c379a00000000000000000000000000000000000000000000000000000000081526004016105bc90612f84565b60405180910390fd5b8073ffffffffffffffffffffffffffffffffffffffff166105e4610f41565b73ffffffffffffffffffffffffffffffffffffffff16148061061357506106128161060d610f41565b610ccf565b5b610652576040517f08c379a000000000000000000000000000000000000000000000000000000000815260040161064990612e64565b60405180910390fd5b61065c8383610f49565b505050565b6000600880549050905090565b61067f610679610f41565b82611002565b6106be576040517f08c379a00000000000000000000000000000000000000000000000000000000081526004016106b590612fa4565b60405180910390fd5b6106c98383836110e0565b505050565b60006106d98361090c565b821061071a576040517f08c379a000000000000000000000000000000000000000000000000000000000815260040161071190612d64565b60405180910390fd5b600660008473ffffffffffffffffffffffffffffffffffffffff1673ffffffffffffffffffffffffffffffffffffffff168152602001908152602001600020600083815260200190815260200160002054905092915050565b61078e83838360405180602001604052806000815250610c5b565b505050565b600061079d610661565b82106107de576040517f08c379a00000000000000000000000000000000000000000000000000000000081526004016107d590612fc4565b60405180910390fd5b60088281548110610818577f4e487b7100000000000000000000000000000000000000000000000000000000600052603260045260246000fd5b90600052602060002001549050919050565b6000806002600084815260200190815260200160002060009054906101000a900473ffffffffffffffffffffffffffffffffffffffff169050600073ffffffffffffffffffffffffffffffffffffffff168173ffffffffffffffffffffffffffffffffffffffff1614156108d3576040517f08c379a00000000000000000000000000000000000000000000000000000000081526004016108ca90612ea4565b60405180910390fd5b80915050919050565b60006108e8600c611347565b90506108f4600c611355565b6108fe338261136b565b6109088183611389565b5050565b60008073ffffffffffffffffffffffffffffffffffffffff168273ffffffffffffffffffffffffffffffffffffffff16141561097d576040517f08c379a000000000000000000000000000000000000000000000000000000000815260040161097490612e84565b60405180910390fd5b600360008373ffffffffffffffffffffffffffffffffffffffff1673ffffffffffffffffffffffffffffffffffffffff168152602001908152602001600020549050919050565b6109cc610f41565b73ffffffffffffffffffffffffffffffffffffffff166109ea610b89565b73ffffffffffffffffffffffffffffffffffffffff1614610a40576040517f08c379a0000000000000000000000000000000000000000000000000000000008152600401610a3790612f44565b60405180910390fd5b610a4a60006113fd565b565b60606000610a593361090c565b67ffffffffffffffff811115610a98577f4e487b7100000000000000000000000000000000000000000000000000000000600052604160045260246000fd5b604051908082528060200260200182016040528015610ac65781602001602082028036833780820191505090505b5090506000805b610ad7600c611347565b811015610b80573373ffffffffffffffffffffffffffffffffffffffff16610afe8261082a565b73ffffffffffffffffffffffffffffffffffffffff161415610b6d5780838380610b27906132d6565b945081518110610b60577f4e487b7100000000000000000000000000000000000000000000000000000000600052603260045260246000fd5b6020026020010181815250505b8080610b78906132d6565b915050610acd565b50819250505090565b6000600b60009054906101000a900473ffffffffffffffffffffffffffffffffffffffff16905090565b606060018054610bc290613273565b80601f0160208091040260200160405190810160405280929190818152602001828054610bee90613273565b8015610c3b5780601f10610c1057610100808354040283529160200191610c3b565b820191906000526020600020905b815481529060010190602001808311610c1e57829003601f168201915b5050505050905090565b610c57610c50610f41565b83836114c3565b5050565b610c6c610c66610f41565b83611002565b610cab576040517f08c379a0000000000000000000000000000000000000000000000000000000008152600401610ca290612fa4565b60405180910390fd5b610cb784848484611630565b50505050565b6060610cc88261168c565b9050919050565b6000600560008473ffffffffffffffffffffffffffffffffffffffff1673ffffffffffffffffffffffffffffffffffffffff16815260200190815260200160002060008373ffffffffffffffffffffffffffffffffffffffff1673ffffffffffffffffffffffffffffffffffffffff16815260200190815260200160002060009054906101000a900460ff16905092915050565b610d6b610f41565b73ffffffffffffffffffffffffffffffffffffffff16610d89610b89565b73ffffffffffffffffffffffffffffffffffffffff1614610ddf576040517f08c379a0000000000000000000000000000000000000000000000000000000008152600401610dd690612f44565b60405180910390fd5b600073ffffffffffffffffffffffffffffffffffffffff168173ffffffffffffffffffffffffffffffffffffffff161415610e4f576040517f08c379a0000000000000000000000000000000000000000000000000000000008152600401610e4690612da4565b60405180910390fd5b610e58816113fd565b50565b60007f780e9d63000000000000000000000000000000000000000000000000000000007bffffffffffffffffffffffffffffffffffffffffffffffffffffffff1916827bffffffffffffffffffffffffffffffffffffffffffffffffffffffff19161480610ece5750610ecd826117de565b5b9050919050565b60008073ffffffffffffffffffffffffffffffffffffffff166002600084815260200190815260200160002060009054906101000a900473ffffffffffffffffffffffffffffffffffffffff1673ffffffffffffffffffffffffffffffffffffffff1614159050919050565b600033905090565b816004600083815260200190815260200160002060006101000a81548173ffffffffffffffffffffffffffffffffffffffff021916908373ffffffffffffffffffffffffffffffffffffffff160217905550808273ffffffffffffffffffffffffffffffffffffffff16610fbc8361082a565b73ffffffffffffffffffffffffffffffffffffffff167f8c5be1e5ebec7d5bd14f71427d1e84f3dd0314c0f7b2291e5b200ac8c7c3b92560405160405180910390a45050565b600061100d82610ed5565b61104c576040517f08c379a000000000000000000000000000000000000000000000000000000000815260040161104390612e44565b60405180910390fd5b60006110578361082a565b90508073ffffffffffffffffffffffffffffffffffffffff168473ffffffffffffffffffffffffffffffffffffffff16148061109957506110988185610ccf565b5b806110d757508373ffffffffffffffffffffffffffffffffffffffff166110bf846104c4565b73ffffffffffffffffffffffffffffffffffffffff16145b91505092915050565b8273ffffffffffffffffffffffffffffffffffffffff166111008261082a565b73ffffffffffffffffffffffffffffffffffffffff1614611156576040517f08c379a000000000000000000000000000000000000000000000000000000000815260040161114d90612dc4565b60405180910390fd5b600073ffffffffffffffffffffffffffffffffffffffff168273ffffffffffffffffffffffffffffffffffffffff1614156111c6576040517f08c379a00000000000000000000000000000000000000000000000000000000081526004016111bd90612e04565b60405180910390fd5b6111d18383836118c0565b6111dc600082610f49565b6001600360008573ffffffffffffffffffffffffffffffffffffffff1673ffffffffffffffffffffffffffffffffffffffff168152602001908152602001600020600082825461122c9190613189565b925050819055506001600360008473ffffffffffffffffffffffffffffffffffffffff1673ffffffffffffffffffffffffffffffffffffffff16815260200190815260200160002060008282546112839190613102565b92505081905550816002600083815260200190815260200160002060006101000a81548173ffffffffffffffffffffffffffffffffffffffff021916908373ffffffffffffffffffffffffffffffffffffffff160217905550808273ffffffffffffffffffffffffffffffffffffffff168473ffffffffffffffffffffffffffffffffffffffff167fddf252ad1be2c89b69c2b068fc378daa952ba7f163c4a11628f55a4df523b3ef60405160405180910390a46113428383836118d0565b505050565b600081600001549050919050565b6001816000016000828254019250508190555050565b6113858282604051806020016040528060008152506118d5565b5050565b61139282610ed5565b6113d1576040517f08c379a00000000000000000000000000000000000000000000000000000000081526004016113c890612ec4565b60405180910390fd5b80600a600084815260200190815260200160002090805190602001906113f892919061242a565b505050565b6000600b60009054906101000a900473ffffffffffffffffffffffffffffffffffffffff16905081600b60006101000a81548173ffffffffffffffffffffffffffffffffffffffff021916908373ffffffffffffffffffffffffffffffffffffffff1602179055508173ffffffffffffffffffffffffffffffffffffffff168173ffffffffffffffffffffffffffffffffffffffff167f8be0079c531659141344cd1fd0a4f28419497f9722a3daafe3b4186f6b6457e060405160405180910390a35050565b8173ffffffffffffffffffffffffffffffffffffffff168373ffffffffffffffffffffffffffffffffffffffff161415611532576040517f08c379a000000000000000000000000000000000000000000000000000000000815260040161152990612e24565b60405180910390fd5b80600560008573ffffffffffffffffffffffffffffffffffffffff1673ffffffffffffffffffffffffffffffffffffffff16815260200190815260200160002060008473ffffffffffffffffffffffffffffffffffffffff1673ffffffffffffffffffffffffffffffffffffffff16815260200190815260200160002060006101000a81548160ff0219169083151502179055508173ffffffffffffffffffffffffffffffffffffffff168373ffffffffffffffffffffffffffffffffffffffff167f17307eab39ab6107e8899845ad3d59bd9653f200f220920489ca2b5937696c31836040516116239190612d27565b60405180910390a3505050565b61163b8484846110e0565b61164784848484611930565b611686576040517f08c379a000000000000000000000000000000000000000000000000000000000815260040161167d90612d84565b60405180910390fd5b50505050565b606061169782610ed5565b6116d6576040517f08c379a00000000000000000000000000000000000000000000000000000000081526004016116cd90612f04565b60405180910390fd5b6000600a600084815260200190815260200160002080546116f690613273565b80601f016020809104026020016040519081016040528092919081815260200182805461172290613273565b801561176f5780601f106117445761010080835404028352916020019161176f565b820191906000526020600020905b81548152906001019060200180831161175257829003601f168201915b505050505090506000611780611ac7565b90506000815114156117965781925050506117d9565b6000825111156117cb5780826040516020016117b3929190612c7a565b604051602081830303815290604052925050506117d9565b6117d484611ade565b925050505b919050565b60007f80ac58cd000000000000000000000000000000000000000000000000000000007bffffffffffffffffffffffffffffffffffffffffffffffffffffffff1916827bffffffffffffffffffffffffffffffffffffffffffffffffffffffff191614806118a957507f5b5e139f000000000000000000000000000000000000000000000000000000007bffffffffffffffffffffffffffffffffffffffffffffffffffffffff1916827bffffffffffffffffffffffffffffffffffffffffffffffffffffffff1916145b806118b957506118b882611b85565b5b9050919050565b6118cb838383611bef565b505050565b505050565b6118df8383611d03565b6118ec6000848484611930565b61192b576040517f08c379a000000000000000000000000000000000000000000000000000000000815260040161192290612d84565b60405180910390fd5b505050565b60006119518473ffffffffffffffffffffffffffffffffffffffff16611edd565b15611aba578373ffffffffffffffffffffffffffffffffffffffff1663150b7a0261197a610f41565b8786866040518563ffffffff1660e01b815260040161199c9493929190612cb9565b602060405180830381600087803b1580156119b657600080fd5b505af19250505080156119e757506040513d601f19601f820116820180604052508101906119e491906127d6565b60015b611a6a573d8060008114611a17576040519150601f19603f3d011682016040523d82523d6000602084013e611a1c565b606091505b50600081511415611a62576040517f08c379a0000000000000000000000000000000000000000000000000000000008152600401611a5990612d84565b60405180910390fd5b805181602001fd5b63150b7a0260e01b7bffffffffffffffffffffffffffffffffffffffffffffffffffffffff1916817bffffffffffffffffffffffffffffffffffffffffffffffffffffffff191614915050611abf565b600190505b949350505050565b606060405180602001604052806000815250905090565b6060611ae982610ed5565b611b28576040517f08c379a0000000000000000000000000000000000000000000000000000000008152600401611b1f90612f64565b60405180910390fd5b6000611b32611ac7565b90506000815111611b525760405180602001604052806000815250611b7d565b80611b5c84611f00565b604051602001611b6d929190612c7a565b6040516020818303038152906040525b915050919050565b60007f01ffc9a7000000000000000000000000000000000000000000000000000000007bffffffffffffffffffffffffffffffffffffffffffffffffffffffff1916827bffffffffffffffffffffffffffffffffffffffffffffffffffffffff1916149050919050565b611bfa8383836120ad565b600073ffffffffffffffffffffffffffffffffffffffff168373ffffffffffffffffffffffffffffffffffffffff161415611c3d57611c38816120b2565b611c7c565b8173ffffffffffffffffffffffffffffffffffffffff168373ffffffffffffffffffffffffffffffffffffffff1614611c7b57611c7a83826120fb565b5b5b600073ffffffffffffffffffffffffffffffffffffffff168273ffffffffffffffffffffffffffffffffffffffff161415611cbf57611cba81612268565b611cfe565b8273ffffffffffffffffffffffffffffffffffffffff168273ffffffffffffffffffffffffffffffffffffffff1614611cfd57611cfc82826123ab565b5b5b505050565b600073ffffffffffffffffffffffffffffffffffffffff168273ffffffffffffffffffffffffffffffffffffffff161415611d73576040517f08c379a0000000000000000000000000000000000000000000000000000000008152600401611d6a90612ee4565b60405180910390fd5b611d7c81610ed5565b15611dbc576040517f08c379a0000000000000000000000000000000000000000000000000000000008152600401611db390612de4565b60405180910390fd5b611dc8600083836118c0565b6001600360008473ffffffffffffffffffffffffffffffffffffffff1673ffffffffffffffffffffffffffffffffffffffff1681526020019081526020016000206000828254611e189190613102565b92505081905550816002600083815260200190815260200160002060006101000a81548173ffffffffffffffffffffffffffffffffffffffff021916908373ffffffffffffffffffffffffffffffffffffffff160217905550808273ffffffffffffffffffffffffffffffffffffffff16600073ffffffffffffffffffffffffffffffffffffffff167fddf252ad1be2c89b69c2b068fc378daa952ba7f163c4a11628f55a4df523b3ef60405160405180910390a4611ed9600083836118d0565b5050565b6000808273ffffffffffffffffffffffffffffffffffffffff163b119050919050565b60606000821415611f48576040518060400160405280600181526020017f300000000000000000000000000000000000000000000000000000000000000081525090506120a8565b600082905060005b60008214611f7a578080611f63906132d6565b915050600a82611f739190613158565b9150611f50565b60008167ffffffffffffffff811115611fbc577f4e487b7100000000000000000000000000000000000000000000000000000000600052604160045260246000fd5b6040519080825280601f01601f191660200182016040528015611fee5781602001600182028036833780820191505090505b5090505b600085146120a1576001826120079190613189565b9150600a85612016919061331f565b60306120229190613102565b60f81b81838151811061205e577f4e487b7100000000000000000000000000000000000000000000000000000000600052603260045260246000fd5b60200101907effffffffffffffffffffffffffffffffffffffffffffffffffffffffffffff1916908160001a905350600a8561209a9190613158565b9450611ff2565b8093505050505b919050565b505050565b6008805490506009600083815260200190815260200160002081905550600881908060018154018082558091505060019003906000526020600020016000909190919091505550565b600060016121088461090c565b6121129190613189565b90506000600760008481526020019081526020016000205490508181146121f7576000600660008673ffffffffffffffffffffffffffffffffffffffff1673ffffffffffffffffffffffffffffffffffffffff168152602001908152602001600020600084815260200190815260200160002054905080600660008773ffffffffffffffffffffffffffffffffffffffff1673ffffffffffffffffffffffffffffffffffffffff168152602001908152602001600020600084815260200190815260200160002081905550816007600083815260200190815260200160002081905550505b6007600084815260200190815260200160002060009055600660008573ffffffffffffffffffffffffffffffffffffffff1673ffffffffffffffffffffffffffffffffffffffff16815260200190815260200160002060008381526020019081526020016000206000905550505050565b6000600160088054905061227c9190613189565b90506000600960008481526020019081526020016000205490506000600883815481106122d2577f4e487b7100000000000000000000000000000000000000000000000000000000600052603260045260246000fd5b90600052602060002001549050806008838154811061231a577f4e487b7100000000000000000000000000000000000000000000000000000000600052603260045260246000fd5b90600052602060002001819055508160096000838152602001908152602001600020819055506009600085815260200190815260200160002060009055600880548061238f577f4e487b7100000000000000000000000000000000000000000000000000000000600052603160045260246000fd5b6001900381819060005260206000200160009055905550505050565b60006123b68361090c565b905081600660008573ffffffffffffffffffffffffffffffffffffffff1673ffffffffffffffffffffffffffffffffffffffff168152602001908152602001600020600083815260200190815260200160002081905550806007600084815260200190815260200160002081905550505050565b82805461243690613273565b90600052602060002090601f016020900481019282612458576000855561249f565b82601f1061247157805160ff191683800117855561249f565b8280016001018555821561249f579182015b8281111561249e578251825591602001919060010190612483565b5b5090506124ac91906124b0565b5090565b5b808211156124c95760008160009055506001016124b1565b5090565b60006124e06124db84613024565b612fff565b9050828152602081018484840111156124f857600080fd5b612503848285613231565b509392505050565b600061251e61251984613055565b612fff565b90508281526020810184848401111561253657600080fd5b612541848285613231565b509392505050565b600081359050612558816139b1565b92915050565b60008135905061256d816139c8565b92915050565b600081359050612582816139df565b92915050565b600081519050612597816139df565b92915050565b600082601f8301126125ae57600080fd5b81356125be8482602086016124cd565b91505092915050565b600082601f8301126125d857600080fd5b81356125e884826020860161250b565b91505092915050565b600081359050612600816139f6565b92915050565b60006020828403121561261857600080fd5b600061262684828501612549565b91505092915050565b6000806040838503121561264257600080fd5b600061265085828601612549565b925050602061266185828601612549565b9150509250929050565b60008060006060848603121561268057600080fd5b600061268e86828701612549565b935050602061269f86828701612549565b92505060406126b0868287016125f1565b9150509250925092565b600080600080608085870312156126d057600080fd5b60006126de87828801612549565b94505060206126ef87828801612549565b9350506040612700878288016125f1565b925050606085013567ffffffffffffffff81111561271d57600080fd5b6127298782880161259d565b91505092959194509250565b6000806040838503121561274857600080fd5b600061275685828601612549565b92505060206127678582860161255e565b9150509250929050565b6000806040838503121561278457600080fd5b600061279285828601612549565b92505060206127a3858286016125f1565b9150509250929050565b6000602082840312156127bf57600080fd5b60006127cd84828501612573565b91505092915050565b6000602082840312156127e857600080fd5b60006127f684828501612588565b91505092915050565b60006020828403121561281157600080fd5b600082013567ffffffffffffffff81111561282b57600080fd5b612837848285016125c7565b91505092915050565b60006020828403121561285257600080fd5b6000612860848285016125f1565b91505092915050565b60006128758383612c5c565b60208301905092915050565b61288a816131bd565b82525050565b600061289b82613096565b6128a581856130c4565b93506128b083613086565b8060005b838110156128e15781516128c88882612869565b97506128d3836130b7565b9250506001810190506128b4565b5085935050505092915050565b6128f7816131cf565b82525050565b6000612908826130a1565b61291281856130d5565b9350612922818560208601613240565b61292b8161340c565b840191505092915050565b6000612941826130ac565b61294b81856130e6565b935061295b818560208601613240565b6129648161340c565b840191505092915050565b600061297a826130ac565b61298481856130f7565b9350612994818560208601613240565b80840191505092915050565b60006129ad602b836130e6565b91506129b88261341d565b604082019050919050565b60006129d06032836130e6565b91506129db8261346c565b604082019050919050565b60006129f36026836130e6565b91506129fe826134bb565b604082019050919050565b6000612a166025836130e6565b9150612a218261350a565b604082019050919050565b6000612a39601c836130e6565b9150612a4482613559565b602082019050919050565b6000612a5c6024836130e6565b9150612a6782613582565b604082019050919050565b6000612a7f6019836130e6565b9150612a8a826135d1565b602082019050919050565b6000612aa2602c836130e6565b9150612aad826135fa565b604082019050919050565b6000612ac56038836130e6565b9150612ad082613649565b604082019050919050565b6000612ae8602a836130e6565b9150612af382613698565b604082019050919050565b6000612b0b6029836130e6565b9150612b16826136e7565b604082019050919050565b6000612b2e602e836130e6565b9150612b3982613736565b604082019050919050565b6000612b516020836130e6565b9150612b5c82613785565b602082019050919050565b6000612b746031836130e6565b9150612b7f826137ae565b604082019050919050565b6000612b97602c836130e6565b9150612ba2826137fd565b604082019050919050565b6000612bba6020836130e6565b9150612bc58261384c565b602082019050919050565b6000612bdd602f836130e6565b9150612be882613875565b604082019050919050565b6000612c006021836130e6565b9150612c0b826138c4565b604082019050919050565b6000612c236031836130e6565b9150612c2e82613913565b604082019050919050565b6000612c46602c836130e6565b9150612c5182613962565b604082019050919050565b612c6581613227565b82525050565b612c7481613227565b82525050565b6000612c86828561296f565b9150612c92828461296f565b91508190509392505050565b6000602082019050612cb36000830184612881565b92915050565b6000608082019050612cce6000830187612881565b612cdb6020830186612881565b612ce86040830185612c6b565b8181036060830152612cfa81846128fd565b905095945050505050565b60006020820190508181036000830152612d1f8184612890565b905092915050565b6000602082019050612d3c60008301846128ee565b92915050565b60006020820190508181036000830152612d5c8184612936565b905092915050565b60006020820190508181036000830152612d7d816129a0565b9050919050565b60006020820190508181036000830152612d9d816129c3565b9050919050565b60006020820190508181036000830152612dbd816129e6565b9050919050565b60006020820190508181036000830152612ddd81612a09565b9050919050565b60006020820190508181036000830152612dfd81612a2c565b9050919050565b60006020820190508181036000830152612e1d81612a4f565b9050919050565b60006020820190508181036000830152612e3d81612a72565b9050919050565b60006020820190508181036000830152612e5d81612a95565b9050919050565b60006020820190508181036000830152612e7d81612ab8565b9050919050565b60006020820190508181036000830152612e9d81612adb565b9050919050565b60006020820190508181036000830152612ebd81612afe565b9050919050565b60006020820190508181036000830152612edd81612b21565b9050919050565b60006020820190508181036000830152612efd81612b44565b9050919050565b60006020820190508181036000830152612f1d81612b67565b9050919050565b60006020820190508181036000830152612f3d81612b8a565b9050919050565b60006020820190508181036000830152612f5d81612bad565b9050919050565b60006020820190508181036000830152612f7d81612bd0565b9050919050565b60006020820190508181036000830152612f9d81612bf3565b9050919050565b60006020820190508181036000830152612fbd81612c16565b9050919050565b60006020820190508181036000830152612fdd81612c39565b9050919050565b6000602082019050612ff96000830184612c6b565b92915050565b600061300961301a565b905061301582826132a5565b919050565b6000604051905090565b600067ffffffffffffffff82111561303f5761303e6133dd565b5b6130488261340c565b9050602081019050919050565b600067ffffffffffffffff8211156130705761306f6133dd565b5b6130798261340c565b9050602081019050919050565b6000819050602082019050919050565b600081519050919050565b600081519050919050565b600081519050919050565b6000602082019050919050565b600082825260208201905092915050565b600082825260208201905092915050565b600082825260208201905092915050565b600081905092915050565b600061310d82613227565b915061311883613227565b9250827fffffffffffffffffffffffffffffffffffffffffffffffffffffffffffffffff0382111561314d5761314c613350565b5b828201905092915050565b600061316382613227565b915061316e83613227565b92508261317e5761317d61337f565b5b828204905092915050565b600061319482613227565b915061319f83613227565b9250828210156131b2576131b1613350565b5b828203905092915050565b60006131c882613207565b9050919050565b60008115159050919050565b60007fffffffff0000000000000000000000000000000000000000000000000000000082169050919050565b600073ffffffffffffffffffffffffffffffffffffffff82169050919050565b6000819050919050565b82818337600083830152505050565b60005b8381101561325e578082015181840152602081019050613243565b8381111561326d576000848401525b50505050565b6000600282049050600182168061328b57607f821691505b6020821081141561329f5761329e6133ae565b5b50919050565b6132ae8261340c565b810181811067ffffffffffffffff821117156132cd576132cc6133dd565b5b80604052505050565b60006132e182613227565b91507fffffffffffffffffffffffffffffffffffffffffffffffffffffffffffffffff82141561331457613313613350565b5b600182019050919050565b600061332a82613227565b915061333583613227565b9250826133455761334461337f565b5b828206905092915050565b7f4e487b7100000000000000000000000000000000000000000000000000000000600052601160045260246000fd5b7f4e487b7100000000000000000000000000000000000000000000000000000000600052601260045260246000fd5b7f4e487b7100000000000000000000000000000000000000000000000000000000600052602260045260246000fd5b7f4e487b7100000000000000000000000000000000000000000000000000000000600052604160045260246000fd5b6000601f19601f8301169050919050565b7f455243373231456e756d657261626c653a206f776e657220696e646578206f7560008201527f74206f6620626f756e6473000000000000000000000000000000000000000000602082015250565b7f4552433732313a207472616e7366657220746f206e6f6e20455243373231526560008201527f63656976657220696d706c656d656e7465720000000000000000000000000000602082015250565b7f4f776e61626c653a206e6577206f776e657220697320746865207a65726f206160008201527f6464726573730000000000000000000000000000000000000000000000000000602082015250565b7f4552433732313a207472616e736665722066726f6d20696e636f72726563742060008201527f6f776e6572000000000000000000000000000000000000000000000000000000602082015250565b7f4552433732313a20746f6b656e20616c7265616479206d696e74656400000000600082015250565b7f4552433732313a207472616e7366657220746f20746865207a65726f2061646460008201527f7265737300000000000000000000000000000000000000000000000000000000602082015250565b7f4552433732313a20617070726f766520746f2063616c6c657200000000000000600082015250565b7f4552433732313a206f70657261746f7220717565727920666f72206e6f6e657860008201527f697374656e7420746f6b656e0000000000000000000000000000000000000000602082015250565b7f4552433732313a20617070726f76652063616c6c6572206973206e6f74206f7760008201527f6e6572206e6f7220617070726f76656420666f7220616c6c0000000000000000602082015250565b7f4552433732313a2062616c616e636520717565727920666f7220746865207a6560008201527f726f206164647265737300000000000000000000000000000000000000000000602082015250565b7f4552433732313a206f776e657220717565727920666f72206e6f6e657869737460008201527f656e7420746f6b656e0000000000000000000000000000000000000000000000602082015250565b7f45524337323155524953746f726167653a2055524920736574206f66206e6f6e60008201527f6578697374656e7420746f6b656e000000000000000000000000000000000000602082015250565b7f4552433732313a206d696e7420746f20746865207a65726f2061646472657373600082015250565b7f45524337323155524953746f726167653a2055524920717565727920666f722060008201527f6e6f6e6578697374656e7420746f6b656e000000000000000000000000000000602082015250565b7f4552433732313a20617070726f76656420717565727920666f72206e6f6e657860008201527f697374656e7420746f6b656e0000000000000000000000000000000000000000602082015250565b7f4f776e61626c653a2063616c6c6572206973206e6f7420746865206f776e6572600082015250565b7f4552433732314d657461646174613a2055524920717565727920666f72206e6f60008201527f6e6578697374656e7420746f6b656e0000000000000000000000000000000000602082015250565b7f4552433732313a20617070726f76616c20746f2063757272656e74206f776e6560008201527f7200000000000000000000000000000000000000000000000000000000000000602082015250565b7f4552433732313a207472616e736665722063616c6c6572206973206e6f74206f60008201527f776e6572206e6f7220617070726f766564000000000000000000000000000000602082015250565b7f455243373231456e756d657261626c653a20676c6f62616c20696e646578206f60008201527f7574206f6620626f756e64730000000000000000000000000000000000000000602082015250565b6139ba816131bd565b81146139c557600080fd5b50565b6139d1816131cf565b81146139dc57600080fd5b50565b6139e8816131db565b81146139f357600080fd5b50565b6139ff81613227565b8114613a0a57600080fd5b5056fea2646970667358221220feadfbb8e4c8ec645527cac78fc514cee2adbb972e1d3e71cc9d82699c8f591364736f6c63430008040033",
  "linkReferences": {},
  "deployedLinkReferences": {}
}