{
  "_format": "hh-sol-artifact-1",
  "contractName": "Seals",
  "sourceName": "contracts/Seals.sol",
  "abi": [
    {
      "inputs": [
        {
          "internalType": "address",
          "name": "_nftContractAddress",
          "type": "address"
        }
      ],
      "stateMutability": "nonpayable",
      "type": "constructor"
    },
    {
      "anonymous": false,
      "inputs": [
        {
          "indexed": true,
          "internalType": "address",
          "name": "dealer",
          "type": "address"
        },
        {
          "indexed": false,
          "internalType": "uint256",
          "name": "dealId",
          "type": "uint256"
        },
        {
          "indexed": false,
          "internalType": "uint256",
          "name": "minBid",
          "type": "uint256"
        }
      ],
      "name": "CreateDeal",
      "type": "event"
    },
    {
      "anonymous": false,
      "inputs": [
        {
          "indexed": true,
          "internalType": "address",
          "name": "previousOwner",
          "type": "address"
        },
        {
          "indexed": true,
          "internalType": "address",
          "name": "newOwner",
          "type": "address"
        }
      ],
      "name": "OwnershipTransferred",
      "type": "event"
    },
    {
      "anonymous": false,
      "inputs": [
        {
          "indexed": false,
          "internalType": "uint256",
          "name": "dealId",
          "type": "uint256"
        },
        {
          "indexed": true,
          "internalType": "address",
          "name": "bidder",
          "type": "address"
        }
      ],
      "name": "PlaceBid",
      "type": "event"
    },
    {
      "anonymous": false,
      "inputs": [
        {
          "indexed": false,
          "internalType": "uint256",
          "name": "dealId",
          "type": "uint256"
        },
        {
          "indexed": true,
          "internalType": "address",
          "name": "to",
          "type": "address"
        },
        {
          "indexed": false,
          "internalType": "uint256",
          "name": "amount",
          "type": "uint256"
        }
      ],
      "name": "ReturnBid",
      "type": "event"
    },
    {
      "inputs": [],
      "name": "activeDeals",
      "outputs": [
        {
          "components": [
            {
              "internalType": "address payable",
              "name": "createdBy",
              "type": "address"
            },
            {
              "internalType": "uint256",
              "name": "id",
              "type": "uint256"
            },
            {
              "internalType": "uint256",
              "name": "tokenId",
              "type": "uint256"
            },
            {
              "internalType": "uint256",
              "name": "minBid",
              "type": "uint256"
            },
            {
              "internalType": "address payable",
              "name": "highestBidder",
              "type": "address"
            },
            {
              "internalType": "uint256",
              "name": "highestBid",
              "type": "uint256"
            },
            {
              "internalType": "uint256",
              "name": "bidsCount",
              "type": "uint256"
            },
            {
              "internalType": "bool",
              "name": "ended",
              "type": "bool"
            }
          ],
          "internalType": "struct Seals.Deal[]",
          "name": "",
          "type": "tuple[]"
        }
      ],
      "stateMutability": "view",
      "type": "function"
    },
    {
      "inputs": [
        {
          "internalType": "uint256",
          "name": "_dealId",
          "type": "uint256"
        }
      ],
      "name": "closeDeal",
      "outputs": [],
      "stateMutability": "nonpayable",
      "type": "function"
    },
    {
      "inputs": [
        {
          "internalType": "uint256",
          "name": "_tokenId",
          "type": "uint256"
        },
        {
          "internalType": "uint256",
          "name": "_minBid",
          "type": "uint256"
        }
      ],
      "name": "createDeal",
      "outputs": [],
      "stateMutability": "payable",
      "type": "function"
    },
    {
      "inputs": [
        {
          "internalType": "uint256",
          "name": "_dealId",
          "type": "uint256"
        }
      ],
      "name": "getDeal",
      "outputs": [
        {
          "internalType": "address payable",
          "name": "",
          "type": "address"
        },
        {
          "internalType": "uint256",
          "name": "",
          "type": "uint256"
        },
        {
          "internalType": "uint256",
          "name": "",
          "type": "uint256"
        },
        {
          "internalType": "uint256",
          "name": "",
          "type": "uint256"
        },
        {
          "internalType": "address payable",
          "name": "",
          "type": "address"
        },
        {
          "internalType": "uint256",
          "name": "",
          "type": "uint256"
        },
        {
          "internalType": "uint256",
          "name": "",
          "type": "uint256"
        },
        {
          "internalType": "bool",
          "name": "",
          "type": "bool"
        }
      ],
      "stateMutability": "view",
      "type": "function"
    },
    {
      "inputs": [
        {
          "internalType": "address",
          "name": "",
          "type": "address"
        },
        {
          "internalType": "address",
          "name": "",
          "type": "address"
        },
        {
          "internalType": "uint256",
          "name": "",
          "type": "uint256"
        },
        {
          "internalType": "bytes",
          "name": "",
          "type": "bytes"
        }
      ],
      "name": "onERC721Received",
      "outputs": [
        {
          "internalType": "bytes4",
          "name": "",
          "type": "bytes4"
        }
      ],
      "stateMutability": "pure",
      "type": "function"
    },
    {
      "inputs": [],
      "name": "owner",
      "outputs": [
        {
          "internalType": "address",
          "name": "",
          "type": "address"
        }
      ],
      "stateMutability": "view",
      "type": "function"
    },
    {
      "inputs": [
        {
          "internalType": "uint256",
          "name": "_dealId",
          "type": "uint256"
        }
      ],
      "name": "placeBid",
      "outputs": [],
      "stateMutability": "payable",
      "type": "function"
    },
    {
      "inputs": [],
      "name": "plaformPrice",
      "outputs": [
        {
          "internalType": "uint256",
          "name": "",
          "type": "uint256"
        }
      ],
      "stateMutability": "view",
      "type": "function"
    },
    {
      "inputs": [],
      "name": "renounceOwnership",
      "outputs": [],
      "stateMutability": "nonpayable",
      "type": "function"
    },
    {
      "inputs": [
        {
          "internalType": "address",
          "name": "newOwner",
          "type": "address"
        }
      ],
      "name": "transferOwnership",
      "outputs": [],
      "stateMutability": "nonpayable",
      "type": "function"
    }
  ],
  "bytecode": "0x60a0604052670de0b6b3a76400006003553480156200001d57600080fd5b5060405162002734380380620027348339818101604052810190620000439190620001c5565b6200006362000057620000e260201b60201c565b620000ea60201b60201c565b8073ffffffffffffffffffffffffffffffffffffffff1660808173ffffffffffffffffffffffffffffffffffffffff1660601b8152505033600460006101000a81548173ffffffffffffffffffffffffffffffffffffffff021916908373ffffffffffffffffffffffffffffffffffffffff160217905550506200023f565b600033905090565b60008060009054906101000a900473ffffffffffffffffffffffffffffffffffffffff169050816000806101000a81548173ffffffffffffffffffffffffffffffffffffffff021916908373ffffffffffffffffffffffffffffffffffffffff1602179055508173ffffffffffffffffffffffffffffffffffffffff168173ffffffffffffffffffffffffffffffffffffffff167f8be0079c531659141344cd1fd0a4f28419497f9722a3daafe3b4186f6b6457e060405160405180910390a35050565b600081519050620001bf8162000225565b92915050565b600060208284031215620001d857600080fd5b6000620001e884828501620001ae565b91505092915050565b6000620001fe8262000205565b9050919050565b600073ffffffffffffffffffffffffffffffffffffffff82169050919050565b6200023081620001f1565b81146200023c57600080fd5b50565b60805160601c6124c16200027360003960008181610353015281816104450152818161104501526110eb01526124c16000f3fe6080604052600436106100915760003560e01c806386832fdb1161005957806386832fdb146101825780638da5cb5b146101ad5780639979ef45146101d8578063b6c1b827146101f4578063f2fde38b1461021057610091565b8063150b7a021461009657806334d99a8d146100d3578063715018a6146100fc57806379a1c5d41461011357806382fd5bac1461013e575b600080fd5b3480156100a257600080fd5b506100bd60048036038101906100b891906116ce565b610239565b6040516100ca9190611c9e565b60405180910390f35b3480156100df57600080fd5b506100fa60048036038101906100f5919061174e565b61024e565b005b34801561010857600080fd5b5061011161078e565b005b34801561011f57600080fd5b50610128610816565b6040516101359190611e79565b60405180910390f35b34801561014a57600080fd5b506101656004803603810190610160919061174e565b610820565b604051610179989796959493929190611b90565b60405180910390f35b34801561018e57600080fd5b5061019761098c565b6040516101a49190611c7c565b60405180910390f35b3480156101b957600080fd5b506101c2610bdc565b6040516101cf9190611b75565b60405180910390f35b6101f260048036038101906101ed919061174e565b610c05565b005b61020e60048036038101906102099190611777565b610fb4565b005b34801561021c57600080fd5b506102376004803603810190610232919061167c565b6113bc565b005b600063150b7a0260e01b905095945050505050565b803373ffffffffffffffffffffffffffffffffffffffff166005600083815260200190815260200160002060000160009054906101000a900473ffffffffffffffffffffffffffffffffffffffff1673ffffffffffffffffffffffffffffffffffffffff16146102f3576040517f08c379a00000000000000000000000000000000000000000000000000000000081526004016102ea90611d79565b60405180910390fd5b60006005600084815260200190815260200160002090506000816006015411610351576040517f08c379a000000000000000000000000000000000000000000000000000000000815260040161034890611cf9565b60405180910390fd5b7f000000000000000000000000000000000000000000000000000000000000000073ffffffffffffffffffffffffffffffffffffffff166342842e0e308360040160009054906101000a900473ffffffffffffffffffffffffffffffffffffffff1684600201546040518463ffffffff1660e01b81526004016103d693929190611c0e565b600060405180830381600087803b1580156103f057600080fd5b505af1158015610404573d6000803e3d6000fd5b505050508060040160009054906101000a900473ffffffffffffffffffffffffffffffffffffffff1673ffffffffffffffffffffffffffffffffffffffff167f000000000000000000000000000000000000000000000000000000000000000073ffffffffffffffffffffffffffffffffffffffff16636352211e83600201546040518263ffffffff1660e01b81526004016104a09190611e79565b60206040518083038186803b1580156104b857600080fd5b505afa1580156104cc573d6000803e3d6000fd5b505050506040513d601f19601f820116820180604052508101906104f091906116a5565b73ffffffffffffffffffffffffffffffffffffffff1614610546576040517f08c379a000000000000000000000000000000000000000000000000000000000815260040161053d90611dd9565b60405180910390fd5b60008160050154905060008260040160006101000a81548173ffffffffffffffffffffffffffffffffffffffff021916908373ffffffffffffffffffffffffffffffffffffffff16021790555060008260050181905550600082600601819055506000826003018190555060018260070160006101000a81548160ff02191690831515021790555060008260000160009054906101000a900473ffffffffffffffffffffffffffffffffffffffff1673ffffffffffffffffffffffffffffffffffffffff168260405161061890611b60565b60006040518083038185875af1925050503d8060008114610655576040519150601f19603f3d011682016040523d82523d6000602084013e61065a565b606091505b505090508061069e576040517f08c379a000000000000000000000000000000000000000000000000000000000815260040161069590611e59565b60405180910390fd5b6000600460009054906101000a900473ffffffffffffffffffffffffffffffffffffffff1673ffffffffffffffffffffffffffffffffffffffff166003546040516106e890611b60565b60006040518083038185875af1925050503d8060008114610725576040519150601f19603f3d011682016040523d82523d6000602084013e61072a565b606091505b505090508061076e576040517f08c379a000000000000000000000000000000000000000000000000000000000815260040161076590611d19565b60405180910390fd5b6002600081548092919061078190612002565b9190505550505050505050565b6107966114b4565b73ffffffffffffffffffffffffffffffffffffffff166107b4610bdc565b73ffffffffffffffffffffffffffffffffffffffff161461080a576040517f08c379a000000000000000000000000000000000000000000000000000000000815260040161080190611db9565b60405180910390fd5b61081460006114bc565b565b6000600354905090565b6000806000806000806000806000600560008b8152602001908152602001600020604051806101000160405290816000820160009054906101000a900473ffffffffffffffffffffffffffffffffffffffff1673ffffffffffffffffffffffffffffffffffffffff1673ffffffffffffffffffffffffffffffffffffffff1681526020016001820154815260200160028201548152602001600382015481526020016004820160009054906101000a900473ffffffffffffffffffffffffffffffffffffffff1673ffffffffffffffffffffffffffffffffffffffff1673ffffffffffffffffffffffffffffffffffffffff16815260200160058201548152602001600682015481526020016007820160009054906101000a900460ff1615151515815250509050806000015181602001518260400151836060015184608001518560a001518660c001518760e001519850985098509850985098509850985050919395975091939597565b606060006002546001546109a09190611f12565b90506000808267ffffffffffffffff8111156109e5577f4e487b7100000000000000000000000000000000000000000000000000000000600052604160045260246000fd5b604051908082528060200260200182016040528015610a1e57816020015b610a0b611580565b815260200190600190039081610a035790505b50905060005b600154811015610bd2576005600082815260200190815260200160002060070160009054906101000a900460ff16610bbf5760056000828152602001908152602001600020604051806101000160405290816000820160009054906101000a900473ffffffffffffffffffffffffffffffffffffffff1673ffffffffffffffffffffffffffffffffffffffff1673ffffffffffffffffffffffffffffffffffffffff1681526020016001820154815260200160028201548152602001600382015481526020016004820160009054906101000a900473ffffffffffffffffffffffffffffffffffffffff1673ffffffffffffffffffffffffffffffffffffffff1673ffffffffffffffffffffffffffffffffffffffff16815260200160058201548152602001600682015481526020016007820160009054906101000a900460ff161515151581525050828480610b7a90612002565b955081518110610bb3577f4e487b7100000000000000000000000000000000000000000000000000000000600052603260045260246000fd5b60200260200101819052505b8080610bca90612002565b915050610a24565b5080935050505090565b60008060009054906101000a900473ffffffffffffffffffffffffffffffffffffffff16905090565b60006005600083815260200190815260200160002090503373ffffffffffffffffffffffffffffffffffffffff168160000160009054906101000a900473ffffffffffffffffffffffffffffffffffffffff1673ffffffffffffffffffffffffffffffffffffffff161415610caf576040517f08c379a0000000000000000000000000000000000000000000000000000000008152600401610ca690611d99565b60405180910390fd5b3373ffffffffffffffffffffffffffffffffffffffff168160040160009054906101000a900473ffffffffffffffffffffffffffffffffffffffff1673ffffffffffffffffffffffffffffffffffffffff161415610d42576040517f08c379a0000000000000000000000000000000000000000000000000000000008152600401610d3990611e19565b60405180910390fd5b80600301543411610d88576040517f08c379a0000000000000000000000000000000000000000000000000000000008152600401610d7f90611e39565b60405180910390fd5b60008160040160009054906101000a900473ffffffffffffffffffffffffffffffffffffffff169050600082600501549050338360040160006101000a81548173ffffffffffffffffffffffffffffffffffffffff021916908373ffffffffffffffffffffffffffffffffffffffff160217905550348360050181905550826006016000815480929190610e1b90612002565b9190505550600081118015610e5d5750600073ffffffffffffffffffffffffffffffffffffffff168273ffffffffffffffffffffffffffffffffffffffff1614155b15610f605760008273ffffffffffffffffffffffffffffffffffffffff1682604051610e8890611b60565b60006040518083038185875af1925050503d8060008114610ec5576040519150601f19603f3d011682016040523d82523d6000602084013e610eca565b606091505b5050905080610f0e576040517f08c379a0000000000000000000000000000000000000000000000000000000008152600401610f0590611d39565b60405180910390fd5b3373ffffffffffffffffffffffffffffffffffffffff167f300ccd590ab281ffe8bebd701d8cf781dc5f8536f0f506ccbe3ceb58fc2fe70e8684604051610f56929190611e94565b60405180910390a2505b3373ffffffffffffffffffffffffffffffffffffffff167ffc337919736faf7386c711645f0cf0c15a04c7ee1888616f8cbd847bb8d980c085604051610fa69190611e79565b60405180910390a250505050565b600354341015610ff9576040517f08c379a0000000000000000000000000000000000000000000000000000000008152600401610ff090611cd9565b60405180910390fd5b670de0b6b3a76400008111611043576040517f08c379a000000000000000000000000000000000000000000000000000000000815260040161103a90611df9565b60405180910390fd5b7f000000000000000000000000000000000000000000000000000000000000000073ffffffffffffffffffffffffffffffffffffffff166342842e0e3330856040518463ffffffff1660e01b81526004016110a093929190611c45565b600060405180830381600087803b1580156110ba57600080fd5b505af11580156110ce573d6000803e3d6000fd5b505050503073ffffffffffffffffffffffffffffffffffffffff167f000000000000000000000000000000000000000000000000000000000000000073ffffffffffffffffffffffffffffffffffffffff16636352211e846040518263ffffffff1660e01b81526004016111429190611e79565b60206040518083038186803b15801561115a57600080fd5b505afa15801561116e573d6000803e3d6000fd5b505050506040513d601f19601f8201168201806040525081019061119291906116a5565b73ffffffffffffffffffffffffffffffffffffffff16146111e8576040517f08c379a00000000000000000000000000000000000000000000000000000000081526004016111df90611d59565b60405180910390fd5b6040518061010001604052803373ffffffffffffffffffffffffffffffffffffffff1681526020016001548152602001838152602001828152602001600073ffffffffffffffffffffffffffffffffffffffff16815260200160008152602001600081526020016000151581525060056000600154815260200190815260200160002060008201518160000160006101000a81548173ffffffffffffffffffffffffffffffffffffffff021916908373ffffffffffffffffffffffffffffffffffffffff16021790555060208201518160010155604082015181600201556060820151816003015560808201518160040160006101000a81548173ffffffffffffffffffffffffffffffffffffffff021916908373ffffffffffffffffffffffffffffffffffffffff16021790555060a0820151816005015560c0820151816006015560e08201518160070160006101000a81548160ff0219169083151502179055509050503373ffffffffffffffffffffffffffffffffffffffff167f5008b05149325953367200f4836663774e4d975e7a19b54518c638a4b273d80560015483604051611398929190611e94565b60405180910390a2600160008154809291906113b390612002565b91905055505050565b6113c46114b4565b73ffffffffffffffffffffffffffffffffffffffff166113e2610bdc565b73ffffffffffffffffffffffffffffffffffffffff1614611438576040517f08c379a000000000000000000000000000000000000000000000000000000000815260040161142f90611db9565b60405180910390fd5b600073ffffffffffffffffffffffffffffffffffffffff168173ffffffffffffffffffffffffffffffffffffffff1614156114a8576040517f08c379a000000000000000000000000000000000000000000000000000000000815260040161149f90611cb9565b60405180910390fd5b6114b1816114bc565b50565b600033905090565b60008060009054906101000a900473ffffffffffffffffffffffffffffffffffffffff169050816000806101000a81548173ffffffffffffffffffffffffffffffffffffffff021916908373ffffffffffffffffffffffffffffffffffffffff1602179055508173ffffffffffffffffffffffffffffffffffffffff168173ffffffffffffffffffffffffffffffffffffffff167f8be0079c531659141344cd1fd0a4f28419497f9722a3daafe3b4186f6b6457e060405160405180910390a35050565b604051806101000160405280600073ffffffffffffffffffffffffffffffffffffffff168152602001600081526020016000815260200160008152602001600073ffffffffffffffffffffffffffffffffffffffff16815260200160008152602001600081526020016000151581525090565b6000813590506116028161245d565b92915050565b6000815190506116178161245d565b92915050565b60008083601f84011261162f57600080fd5b8235905067ffffffffffffffff81111561164857600080fd5b60208301915083600182028301111561166057600080fd5b9250929050565b60008135905061167681612474565b92915050565b60006020828403121561168e57600080fd5b600061169c848285016115f3565b91505092915050565b6000602082840312156116b757600080fd5b60006116c584828501611608565b91505092915050565b6000806000806000608086880312156116e657600080fd5b60006116f4888289016115f3565b9550506020611705888289016115f3565b945050604061171688828901611667565b935050606086013567ffffffffffffffff81111561173357600080fd5b61173f8882890161161d565b92509250509295509295909350565b60006020828403121561176057600080fd5b600061176e84828501611667565b91505092915050565b6000806040838503121561178a57600080fd5b600061179885828601611667565b92505060206117a985828601611667565b9150509250929050565b60006117bf8383611aa0565b6101008301905092915050565b6117d581611fcc565b82525050565b6117e481611f58565b82525050565b6117f381611f58565b82525050565b61180281611f46565b82525050565b600061181382611ecd565b61181d8185611ee5565b935061182883611ebd565b8060005b8381101561185957815161184088826117b3565b975061184b83611ed8565b92505060018101905061182c565b5085935050505092915050565b61186f81611f6a565b82525050565b61187e81611f6a565b82525050565b61188d81611f76565b82525050565b60006118a0602683611f01565b91506118ab8261207a565b604082019050919050565b60006118c3601c83611f01565b91506118ce826120c9565b602082019050919050565b60006118e6603383611f01565b91506118f1826120f2565b604082019050919050565b6000611909602783611f01565b915061191482612141565b604082019050919050565b600061192c602983611f01565b915061193782612190565b604082019050919050565b600061194f602783611f01565b915061195a826121df565b604082019050919050565b6000611972602983611f01565b915061197d8261222e565b604082019050919050565b6000611995601e83611f01565b91506119a08261227d565b602082019050919050565b60006119b8602083611f01565b91506119c3826122a6565b602082019050919050565b60006119db602a83611f01565b91506119e6826122cf565b604082019050919050565b60006119fe602f83611f01565b9150611a098261231e565b604082019050919050565b6000611a21603e83611f01565b9150611a2c8261236d565b604082019050919050565b6000611a44600083611ef6565b9150611a4f826123bc565b600082019050919050565b6000611a67602983611f01565b9150611a72826123bf565b604082019050919050565b6000611a8a602483611f01565b9150611a958261240e565b604082019050919050565b61010082016000820151611ab760008501826117db565b506020820151611aca6020850182611b42565b506040820151611add6040850182611b42565b506060820151611af06060850182611b42565b506080820151611b0360808501826117db565b5060a0820151611b1660a0850182611b42565b5060c0820151611b2960c0850182611b42565b5060e0820151611b3c60e0850182611866565b50505050565b611b4b81611fc2565b82525050565b611b5a81611fc2565b82525050565b6000611b6b82611a37565b9150819050919050565b6000602082019050611b8a60008301846117f9565b92915050565b600061010082019050611ba6600083018b6117ea565b611bb3602083018a611b51565b611bc06040830189611b51565b611bcd6060830188611b51565b611bda60808301876117ea565b611be760a0830186611b51565b611bf460c0830185611b51565b611c0160e0830184611875565b9998505050505050505050565b6000606082019050611c2360008301866117f9565b611c3060208301856117cc565b611c3d6040830184611b51565b949350505050565b6000606082019050611c5a60008301866117f9565b611c6760208301856117f9565b611c746040830184611b51565b949350505050565b60006020820190508181036000830152611c968184611808565b905092915050565b6000602082019050611cb36000830184611884565b92915050565b60006020820190508181036000830152611cd281611893565b9050919050565b60006020820190508181036000830152611cf2816118b6565b9050919050565b60006020820190508181036000830152611d12816118d9565b9050919050565b60006020820190508181036000830152611d32816118fc565b9050919050565b60006020820190508181036000830152611d528161191f565b9050919050565b60006020820190508181036000830152611d7281611942565b9050919050565b60006020820190508181036000830152611d9281611965565b9050919050565b60006020820190508181036000830152611db281611988565b9050919050565b60006020820190508181036000830152611dd2816119ab565b9050919050565b60006020820190508181036000830152611df2816119ce565b9050919050565b60006020820190508181036000830152611e12816119f1565b9050919050565b60006020820190508181036000830152611e3281611a14565b9050919050565b60006020820190508181036000830152611e5281611a5a565b9050919050565b60006020820190508181036000830152611e7281611a7d565b9050919050565b6000602082019050611e8e6000830184611b51565b92915050565b6000604082019050611ea96000830185611b51565b611eb66020830184611b51565b9392505050565b6000819050602082019050919050565b600081519050919050565b6000602082019050919050565b600082825260208201905092915050565b600081905092915050565b600082825260208201905092915050565b6000611f1d82611fc2565b9150611f2883611fc2565b925082821015611f3b57611f3a61204b565b5b828203905092915050565b6000611f5182611fa2565b9050919050565b6000611f6382611fa2565b9050919050565b60008115159050919050565b60007fffffffff0000000000000000000000000000000000000000000000000000000082169050919050565b600073ffffffffffffffffffffffffffffffffffffffff82169050919050565b6000819050919050565b6000611fd782611fde565b9050919050565b6000611fe982611ff0565b9050919050565b6000611ffb82611fa2565b9050919050565b600061200d82611fc2565b91507fffffffffffffffffffffffffffffffffffffffffffffffffffffffffffffffff8214156120405761203f61204b565b5b600182019050919050565b7f4e487b7100000000000000000000000000000000000000000000000000000000600052601160045260246000fd5b7f4f776e61626c653a206e6577206f776e657220697320746865207a65726f206160008201527f6464726573730000000000000000000000000000000000000000000000000000602082015250565b7f506c6163656d656e742070726963652073656e7420746f6f206c6f7700000000600082015250565b7f596f75206d75737420686176652061746c65617374206f6e652062696420626560008201527f666f726520636c6f73696e672061206465616c00000000000000000000000000602082015250565b7f4661696c656420746f2073656e642066756e647320746f20706c61666f726d2060008201527f6163636f756e7400000000000000000000000000000000000000000000000000602082015250565b7f4661696c656420746f2072657475726e2066756e647320746f2070726576696f60008201527f7573206269646465720000000000000000000000000000000000000000000000602082015250565b7f4661696c656420746f207472616e73666572204e465420746f2074686973206360008201527f6f6e747261637400000000000000000000000000000000000000000000000000602082015250565b7f4f6e6c79206465616c2063726561746f722063616e20706572666f726d20746860008201527f697320616374696f6e0000000000000000000000000000000000000000000000602082015250565b7f596f752063616e277420626964206f6e20796f7572206f776e206465616c0000600082015250565b7f4f776e61626c653a2063616c6c6572206973206e6f7420746865206f776e6572600082015250565b7f4661696c656420746f207472616e7366657220746f6b656e20746f206869676860008201527f6573742062696464657200000000000000000000000000000000000000000000602082015250565b7f4d696e696d756d2062696420616d6f756e74206d75737420626520677265617460008201527f6572207468616e20312065746865720000000000000000000000000000000000602082015250565b7f596f752063616e27742062696420616761696e206265636175736520796f752060008201527f61726520616c7265616479207468652068696768657374206269646465720000602082015250565b50565b7f46756e64732073656e74206e6f7420656e6f75676820746f20626964206f6e2060008201527f74686973206465616c0000000000000000000000000000000000000000000000602082015250565b7f4661696c656420746f2073656e642066756e647320746f206465616c2063726560008201527f61746f7200000000000000000000000000000000000000000000000000000000602082015250565b61246681611f46565b811461247157600080fd5b50565b61247d81611fc2565b811461248857600080fd5b5056fea2646970667358221220da5d8a402fa9a8711b431ef6cb2de629445e40d6833fd756779d8a44de4c5d2464736f6c63430008040033",
  "linkReferences": {},
  "deployedLinkReferences": {}
}